{
  "contractName": "DataSharing",
  "abi": [
    {
      "inputs": [
        {
          "internalType": "address",
          "name": "_identityContractAddress",
          "type": "address"
        }
      ],
      "stateMutability": "nonpayable",
      "type": "constructor"
    },
    {
      "anonymous": false,
      "inputs": [
        {
          "indexed": false,
          "internalType": "uint256",
          "name": "requestId",
          "type": "uint256"
        }
      ],
      "name": "AccessApproved",
      "type": "event"
    },
    {
      "anonymous": false,
      "inputs": [
        {
          "indexed": false,
          "internalType": "uint256",
          "name": "requestId",
          "type": "uint256"
        },
        {
          "indexed": false,
          "internalType": "uint256",
          "name": "diseaseId",
          "type": "uint256"
        },
        {
          "indexed": false,
          "internalType": "address",
          "name": "requester",
          "type": "address"
        }
      ],
      "name": "AccessRequested",
      "type": "event"
    },
    {
      "inputs": [
        {
          "internalType": "uint256",
          "name": "",
          "type": "uint256"
        }
      ],
      "name": "accessRequests",
      "outputs": [
        {
          "internalType": "uint256",
          "name": "diseaseId",
          "type": "uint256"
        },
        {
          "internalType": "address",
          "name": "requester",
          "type": "address"
        },
        {
          "internalType": "bool",
          "name": "approved",
          "type": "bool"
        }
      ],
      "stateMutability": "view",
      "type": "function",
      "constant": true
    },
    {
      "inputs": [],
      "name": "requestCount",
      "outputs": [
        {
          "internalType": "uint256",
          "name": "",
          "type": "uint256"
        }
      ],
      "stateMutability": "view",
      "type": "function",
      "constant": true
    },
    {
      "inputs": [
        {
          "internalType": "uint256",
          "name": "_diseaseId",
          "type": "uint256"
        }
      ],
      "name": "requestAccess",
      "outputs": [],
      "stateMutability": "nonpayable",
      "type": "function"
    },
    {
      "inputs": [
        {
          "internalType": "uint256",
          "name": "_requestId",
          "type": "uint256"
        }
      ],
      "name": "approveAccess",
      "outputs": [],
      "stateMutability": "nonpayable",
      "type": "function"
    },
    {
      "inputs": [
        {
          "internalType": "uint256",
          "name": "_requestId",
          "type": "uint256"
        }
      ],
      "name": "isAccessApproved",
      "outputs": [
        {
          "internalType": "bool",
          "name": "",
          "type": "bool"
        }
      ],
      "stateMutability": "view",
      "type": "function",
      "constant": true
    }
  ],
  "bytecode": "0x608060405234801561001057600080fd5b506040516108ff3803806108ff8339818101604052810190610032919061008e565b80600260006101000a81548173ffffffffffffffffffffffffffffffffffffffff021916908373ffffffffffffffffffffffffffffffffffffffff16021790555050610100565b600081519050610088816100e9565b92915050565b6000602082840312156100a057600080fd5b60006100ae84828501610079565b91505092915050565b60006100c2826100c9565b9050919050565b600073ffffffffffffffffffffffffffffffffffffffff82169050919050565b6100f2816100b7565b81146100fd57600080fd5b50565b6107f08061010f6000396000f3fe608060405234801561001057600080fd5b50600436106100575760003560e01c8063568497bb1461005c5780635badbe4c146100785780637fdc2cdc146100965780638ca91a9a146100b2578063b5eee548146100e4575b600080fd5b61007660048036038101906100719190610546565b610114565b005b61008061026c565b60405161008d9190610632565b60405180910390f35b6100b060048036038101906100ab9190610546565b610272565b005b6100cc60048036038101906100c79190610546565b610470565b6040516100db9392919061064d565b60405180910390f35b6100fe60048036038101906100f99190610546565b6104c7565b60405161010b91906105f7565b60405180910390f35b600260009054906101000a900473ffffffffffffffffffffffffffffffffffffffff1673ffffffffffffffffffffffffffffffffffffffff1663fe9fbb80336040518263ffffffff1660e01b815260040161016f91906105dc565b60206040518083038186803b15801561018757600080fd5b505afa15801561019b573d6000803e3d6000fd5b505050506040513d601f19601f820116820180604052508101906101bf919061051d565b6101fe576040517f08c379a00000000000000000000000000000000000000000000000000000000081526004016101f590610612565b60405180910390fd5b6000806000838152602001908152602001600020905060018160010160146101000a81548160ff0219169083151502179055507f20b6b6693f13dd92fbca17bb1994019e20db5de5d3c6d3e1282f4c516a37d106826040516102609190610632565b60405180910390a15050565b60015481565b600260009054906101000a900473ffffffffffffffffffffffffffffffffffffffff1673ffffffffffffffffffffffffffffffffffffffff1663fe9fbb80336040518263ffffffff1660e01b81526004016102cd91906105dc565b60206040518083038186803b1580156102e557600080fd5b505afa1580156102f9573d6000803e3d6000fd5b505050506040513d601f19601f8201168201806040525081019061031d919061051d565b61035c576040517f08c379a000000000000000000000000000000000000000000000000000000000815260040161035390610612565b60405180910390fd5b6001600081548092919061036f90610714565b919050555060405180606001604052808281526020013373ffffffffffffffffffffffffffffffffffffffff1681526020016000151581525060008060015481526020019081526020016000206000820151816000015560208201518160010160006101000a81548173ffffffffffffffffffffffffffffffffffffffff021916908373ffffffffffffffffffffffffffffffffffffffff16021790555060408201518160010160146101000a81548160ff0219169083151502179055509050507ff4cbeb9b7d632026093d9d6555eab7e2834d40c0672da209951f218445745581600154823360405161046593929190610684565b60405180910390a150565b60006020528060005260406000206000915090508060000154908060010160009054906101000a900473ffffffffffffffffffffffffffffffffffffffff16908060010160149054906101000a900460ff16905083565b600080600083815260200190815260200160002060010160149054906101000a900460ff169050919050565b6000815190506105028161078c565b92915050565b600081359050610517816107a3565b92915050565b60006020828403121561052f57600080fd5b600061053d848285016104f3565b91505092915050565b60006020828403121561055857600080fd5b600061056684828501610508565b91505092915050565b610578816106cc565b82525050565b610587816106de565b82525050565b600061059a600e836106bb565b91507f4e6f7420617574686f72697a65640000000000000000000000000000000000006000830152602082019050919050565b6105d68161070a565b82525050565b60006020820190506105f1600083018461056f565b92915050565b600060208201905061060c600083018461057e565b92915050565b6000602082019050818103600083015261062b8161058d565b9050919050565b600060208201905061064760008301846105cd565b92915050565b600060608201905061066260008301866105cd565b61066f602083018561056f565b61067c604083018461057e565b949350505050565b600060608201905061069960008301866105cd565b6106a660208301856105cd565b6106b3604083018461056f565b949350505050565b600082825260208201905092915050565b60006106d7826106ea565b9050919050565b60008115159050919050565b600073ffffffffffffffffffffffffffffffffffffffff82169050919050565b6000819050919050565b600061071f8261070a565b91507fffffffffffffffffffffffffffffffffffffffffffffffffffffffffffffffff8214156107525761075161075d565b5b600182019050919050565b7f4e487b7100000000000000000000000000000000000000000000000000000000600052601160045260246000fd5b610795816106de565b81146107a057600080fd5b50565b6107ac8161070a565b81146107b757600080fd5b5056fea2646970667358221220589961cf17242ca7eec00bc8b3dc5441575a35179bb43d1a216ddb148b918ec264736f6c63430008000033",
  "immutableReferences": {},
  "source": "// SPDX-License-Identifier: MIT\r\npragma solidity ^0.8.0;\r\n\r\nimport \"./Identity.sol\";\r\n\r\ncontract DataSharing {\r\n    struct AccessRequest {\r\n        uint256 diseaseId;\r\n        address requester;\r\n        bool approved;\r\n    }\r\n\r\n    mapping(uint256 => AccessRequest) public accessRequests;\r\n    uint256 public requestCount;\r\n    Identity identityContract;\r\n\r\n    event AccessRequested(\r\n        uint256 requestId,\r\n        uint256 diseaseId,\r\n        address requester\r\n    );\r\n    event AccessApproved(uint256 requestId);\r\n\r\n    constructor(address _identityContractAddress) {\r\n        identityContract = Identity(_identityContractAddress);\r\n    }\r\n\r\n    function requestAccess(uint256 _diseaseId) public {\r\n        require(identityContract.isAuthorized(msg.sender), \"Not authorized\");\r\n\r\n        requestCount++;\r\n        accessRequests[requestCount] = AccessRequest(\r\n            _diseaseId,\r\n            msg.sender,\r\n            false\r\n        );\r\n\r\n        emit AccessRequested(requestCount, _diseaseId, msg.sender);\r\n    }\r\n\r\n    function approveAccess(uint256 _requestId) public {\r\n        require(identityContract.isAuthorized(msg.sender), \"Not authorized\");\r\n\r\n        AccessRequest storage request = accessRequests[_requestId];\r\n        request.approved = true;\r\n\r\n        emit AccessApproved(_requestId);\r\n    }\r\n\r\n    function isAccessApproved(uint256 _requestId) public view returns (bool) {\r\n        return accessRequests[_requestId].approved;\r\n    }\r\n}\r\n",
  "sourcePath": "C:\\Users\\Yojith\\Documents\\BlockBusters\\backend\\contracts\\contracts\\DataSharing.sol",
  "compiler": {
    "name": "solc",
    "version": "0.8.0+commit.c7dfd78e.Emscripten.clang"
  },
  "schemaVersion": "3.4.16",
  "updatedAt": "2024-08-08T09:36:30.347Z",
  "networkType": "ethereum",
  "devdoc": {
    "kind": "dev",
    "methods": {},
    "version": 1
  },
  "userdoc": {
    "kind": "user",
    "methods": {},
    "version": 1
  }
}