{
  "contractName": "Identity",
  "abi": [
    {
      "inputs": [],
      "stateMutability": "nonpayable",
      "type": "constructor"
    },
    {
      "anonymous": false,
      "inputs": [
        {
          "indexed": true,
          "internalType": "address",
          "name": "user",
          "type": "address"
        }
      ],
      "name": "UserAuthorized",
      "type": "event"
    },
    {
      "anonymous": false,
      "inputs": [
        {
          "indexed": true,
          "internalType": "address",
          "name": "user",
          "type": "address"
        },
        {
          "indexed": false,
          "internalType": "enum Identity.Role",
          "name": "role",
          "type": "uint8"
        }
      ],
      "name": "UserRegistered",
      "type": "event"
    },
    {
      "inputs": [],
      "name": "admin",
      "outputs": [
        {
          "internalType": "address",
          "name": "",
          "type": "address"
        }
      ],
      "stateMutability": "view",
      "type": "function",
      "constant": true
    },
    {
      "inputs": [
        {
          "internalType": "address",
          "name": "",
          "type": "address"
        }
      ],
      "name": "users",
      "outputs": [
        {
          "internalType": "address",
          "name": "addr",
          "type": "address"
        },
        {
          "internalType": "enum Identity.Role",
          "name": "role",
          "type": "uint8"
        },
        {
          "internalType": "bool",
          "name": "authorized",
          "type": "bool"
        }
      ],
      "stateMutability": "view",
      "type": "function",
      "constant": true
    },
    {
      "inputs": [
        {
          "internalType": "address",
          "name": "_user",
          "type": "address"
        },
        {
          "internalType": "enum Identity.Role",
          "name": "_role",
          "type": "uint8"
        }
      ],
      "name": "registerUser",
      "outputs": [],
      "stateMutability": "nonpayable",
      "type": "function"
    },
    {
      "inputs": [
        {
          "internalType": "address",
          "name": "_user",
          "type": "address"
        }
      ],
      "name": "authorizeUser",
      "outputs": [],
      "stateMutability": "nonpayable",
      "type": "function"
    },
    {
      "inputs": [
        {
          "internalType": "address",
          "name": "_user",
          "type": "address"
        }
      ],
      "name": "isAuthorized",
      "outputs": [
        {
          "internalType": "bool",
          "name": "",
          "type": "bool"
        }
      ],
      "stateMutability": "view",
      "type": "function",
      "constant": true
    }
  ],
  "bytecode": "0x608060405234801561001057600080fd5b5033600160006101000a81548173ffffffffffffffffffffffffffffffffffffffff021916908373ffffffffffffffffffffffffffffffffffffffff160217905550610981806100616000396000f3fe608060405234801561001057600080fd5b50600436106100575760003560e01c806367c2a3601461005c5780639e9fa09714610078578063a87430ba14610094578063f851a440146100c6578063fe9fbb80146100e4575b600080fd5b6100766004803603810190610071919061066d565b610114565b005b610092600480360381019061008d9190610696565b610315565b005b6100ae60048036038101906100a9919061066d565b610561565b6040516100bd939291906107c0565b60405180910390f35b6100ce6105c5565b6040516100db91906107a5565b60405180910390f35b6100fe60048036038101906100f9919061066d565b6105eb565b60405161010b91906107f7565b60405180910390f35b600160009054906101000a900473ffffffffffffffffffffffffffffffffffffffff1673ffffffffffffffffffffffffffffffffffffffff163373ffffffffffffffffffffffffffffffffffffffff16146101a4576040517f08c379a000000000000000000000000000000000000000000000000000000000815260040161019b9061084d565b60405180910390fd5b600073ffffffffffffffffffffffffffffffffffffffff166000808373ffffffffffffffffffffffffffffffffffffffff1673ffffffffffffffffffffffffffffffffffffffff16815260200190815260200160002060000160009054906101000a900473ffffffffffffffffffffffffffffffffffffffff1673ffffffffffffffffffffffffffffffffffffffff161415610275576040517f08c379a000000000000000000000000000000000000000000000000000000000815260040161026c9061082d565b60405180910390fd5b60016000808373ffffffffffffffffffffffffffffffffffffffff1673ffffffffffffffffffffffffffffffffffffffff16815260200190815260200160002060000160156101000a81548160ff0219169083151502179055508073ffffffffffffffffffffffffffffffffffffffff167fb0be505cf6e26533f3066ac7722c3f8a5e8a123f43187c7832d333c49603b14660405160405180910390a250565b600160009054906101000a900473ffffffffffffffffffffffffffffffffffffffff1673ffffffffffffffffffffffffffffffffffffffff163373ffffffffffffffffffffffffffffffffffffffff16146103a5576040517f08c379a000000000000000000000000000000000000000000000000000000000815260040161039c9061084d565b60405180910390fd5b60405180606001604052808373ffffffffffffffffffffffffffffffffffffffff168152602001826002811115610405577f4e487b7100000000000000000000000000000000000000000000000000000000600052602160045260246000fd5b8152602001600015158152506000808473ffffffffffffffffffffffffffffffffffffffff1673ffffffffffffffffffffffffffffffffffffffff16815260200190815260200160002060008201518160000160006101000a81548173ffffffffffffffffffffffffffffffffffffffff021916908373ffffffffffffffffffffffffffffffffffffffff16021790555060208201518160000160146101000a81548160ff021916908360028111156104e7577f4e487b7100000000000000000000000000000000000000000000000000000000600052602160045260246000fd5b021790555060408201518160000160156101000a81548160ff0219169083151502179055509050508173ffffffffffffffffffffffffffffffffffffffff167f8e18574f8a7333e6a87112742a55853a643e2f0550f4e1a3a2c3f1bb2994441d826040516105559190610812565b60405180910390a25050565b60006020528060005260406000206000915090508060000160009054906101000a900473ffffffffffffffffffffffffffffffffffffffff16908060000160149054906101000a900460ff16908060000160159054906101000a900460ff16905083565b600160009054906101000a900473ffffffffffffffffffffffffffffffffffffffff1681565b60008060008373ffffffffffffffffffffffffffffffffffffffff1673ffffffffffffffffffffffffffffffffffffffff16815260200190815260200160002060000160159054906101000a900460ff169050919050565b60008135905061065281610924565b92915050565b6000813590506106678161093b565b92915050565b60006020828403121561067f57600080fd5b600061068d84828501610643565b91505092915050565b600080604083850312156106a957600080fd5b60006106b785828601610643565b92505060206106c885828601610658565b9150509250929050565b6106db8161087e565b82525050565b6106ea81610890565b82525050565b6106f9816108cf565b82525050565b600061070c60138361086d565b91507f55736572206e6f742072656769737465726564000000000000000000000000006000830152602082019050919050565b600061074c60228361086d565b91507f4f6e6c792061646d696e2063616e20706572666f726d2074686973206163746960008301527f6f6e0000000000000000000000000000000000000000000000000000000000006020830152604082019050919050565b60006020820190506107ba60008301846106d2565b92915050565b60006060820190506107d560008301866106d2565b6107e260208301856106f0565b6107ef60408301846106e1565b949350505050565b600060208201905061080c60008301846106e1565b92915050565b600060208201905061082760008301846106f0565b92915050565b60006020820190508181036000830152610846816106ff565b9050919050565b600060208201905081810360008301526108668161073f565b9050919050565b600082825260208201905092915050565b6000610889826108af565b9050919050565b60008115159050919050565b60008190506108aa82610910565b919050565b600073ffffffffffffffffffffffffffffffffffffffff82169050919050565b60006108da8261089c565b9050919050565b7f4e487b7100000000000000000000000000000000000000000000000000000000600052602160045260246000fd5b60038110610921576109206108e1565b5b50565b61092d8161087e565b811461093857600080fd5b50565b6003811061094857600080fd5b5056fea26469706673582212207a606c93ccb416aa20535d7d4d08125eba5755853d28d3e4d952f5d0f5d1234c64736f6c63430008000033",
  "immutableReferences": {},
  "source": "// SPDX-License-Identifier: MIT\r\npragma solidity ^0.8.0;\r\n\r\ncontract Identity {\r\n    enum Role {\r\n        Patient,\r\n        Researcher,\r\n        Doctor\r\n    }\r\n\r\n    struct User {\r\n        address addr;\r\n        Role role;\r\n        bool authorized;\r\n    }\r\n\r\n    mapping(address => User) public users;\r\n    address public admin;\r\n\r\n    event UserRegistered(address indexed user, Role role);\r\n    event UserAuthorized(address indexed user);\r\n\r\n    modifier onlyAdmin() {\r\n        require(msg.sender == admin, \"Only admin can perform this action\");\r\n        _;\r\n    }\r\n\r\n    constructor() {\r\n        admin = msg.sender;\r\n    }\r\n\r\n    function registerUser(address _user, Role _role) public onlyAdmin {\r\n        users[_user] = User(_user, _role, false);\r\n        emit UserRegistered(_user, _role);\r\n    }\r\n\r\n    function authorizeUser(address _user) public onlyAdmin {\r\n        require(users[_user].addr != address(0), \"User not registered\");\r\n        users[_user].authorized = true;\r\n        emit UserAuthorized(_user);\r\n    }\r\n\r\n    function isAuthorized(address _user) public view returns (bool) {\r\n        return users[_user].authorized;\r\n    }\r\n}\r\n",
  "sourcePath": "C:\\Users\\Yojith\\Documents\\BlockBusters\\backend\\contracts\\contracts\\Identity.sol",
  "compiler": {
    "name": "solc",
    "version": "0.8.0+commit.c7dfd78e.Emscripten.clang"
  },
  "schemaVersion": "3.4.16",
  "updatedAt": "2024-08-09T09:21:42.496Z",
  "networkType": "ethereum",
  "devdoc": {
    "kind": "dev",
    "methods": {},
    "version": 1
  },
  "userdoc": {
    "kind": "user",
    "methods": {},
    "version": 1
  }
}