{
  "contractName": "Registry",
  "abi": [
    {
      "inputs": [
        {
          "internalType": "address",
          "name": "_identityContractAddress",
          "type": "address"
        }
      ],
      "stateMutability": "nonpayable",
      "type": "constructor"
    },
    {
      "anonymous": false,
      "inputs": [
        {
          "indexed": false,
          "internalType": "uint256",
          "name": "diseaseId",
          "type": "uint256"
        },
        {
          "indexed": false,
          "internalType": "string",
          "name": "name",
          "type": "string"
        },
        {
          "indexed": false,
          "internalType": "string",
          "name": "ipfsHash",
          "type": "string"
        },
        {
          "indexed": false,
          "internalType": "address",
          "name": "submitter",
          "type": "address"
        }
      ],
      "name": "DiseaseRegistered",
      "type": "event"
    },
    {
      "inputs": [],
      "name": "diseaseCount",
      "outputs": [
        {
          "internalType": "uint256",
          "name": "",
          "type": "uint256"
        }
      ],
      "stateMutability": "view",
      "type": "function",
      "constant": true
    },
    {
      "inputs": [
        {
          "internalType": "uint256",
          "name": "",
          "type": "uint256"
        }
      ],
      "name": "diseases",
      "outputs": [
        {
          "internalType": "string",
          "name": "name",
          "type": "string"
        },
        {
          "internalType": "string",
          "name": "description",
          "type": "string"
        },
        {
          "internalType": "string",
          "name": "ipfsHash",
          "type": "string"
        },
        {
          "internalType": "address",
          "name": "submitter",
          "type": "address"
        }
      ],
      "stateMutability": "view",
      "type": "function",
      "constant": true
    },
    {
      "inputs": [
        {
          "internalType": "string",
          "name": "_name",
          "type": "string"
        },
        {
          "internalType": "string",
          "name": "_description",
          "type": "string"
        },
        {
          "internalType": "string",
          "name": "_ipfsHash",
          "type": "string"
        }
      ],
      "name": "registerDisease",
      "outputs": [],
      "stateMutability": "nonpayable",
      "type": "function"
    },
    {
      "inputs": [
        {
          "internalType": "uint256",
          "name": "_diseaseId",
          "type": "uint256"
        }
      ],
      "name": "getDisease",
      "outputs": [
        {
          "internalType": "string",
          "name": "",
          "type": "string"
        },
        {
          "internalType": "string",
          "name": "",
          "type": "string"
        },
        {
          "internalType": "string",
          "name": "",
          "type": "string"
        },
        {
          "internalType": "address",
          "name": "",
          "type": "address"
        }
      ],
      "stateMutability": "view",
      "type": "function",
      "constant": true
    }
  ],
  "bytecode": "0x608060405234801561001057600080fd5b50604051610eb3380380610eb38339818101604052810190610032919061008e565b80600260006101000a81548173ffffffffffffffffffffffffffffffffffffffff021916908373ffffffffffffffffffffffffffffffffffffffff16021790555050610100565b600081519050610088816100e9565b92915050565b6000602082840312156100a057600080fd5b60006100ae84828501610079565b91505092915050565b60006100c2826100c9565b9050919050565b600073ffffffffffffffffffffffffffffffffffffffff82169050919050565b6100f2816100b7565b81146100fd57600080fd5b50565b610da48061010f6000396000f3fe608060405234801561001057600080fd5b506004361061004c5760003560e01c80630beca10e1461005157806346459b22146100845780634fa16f47146100b7578063b6bc369f146100d5575b600080fd5b61006b6004803603810190610066919061095d565b6100f1565b60405161007b9493929190610a38565b60405180910390f35b61009e6004803603810190610099919061095d565b610348565b6040516100ae9493929190610a38565b60405180910390f35b6100bf610530565b6040516100cc9190610ab2565b60405180910390f35b6100ef60048036038101906100ea91906108c6565b610536565b005b606080606060008060008087815260200190815260200160002060405180608001604052908160008201805461012690610c27565b80601f016020809104026020016040519081016040528092919081815260200182805461015290610c27565b801561019f5780601f106101745761010080835404028352916020019161019f565b820191906000526020600020905b81548152906001019060200180831161018257829003601f168201915b505050505081526020016001820180546101b890610c27565b80601f01602080910402602001604051908101604052809291908181526020018280546101e490610c27565b80156102315780601f1061020657610100808354040283529160200191610231565b820191906000526020600020905b81548152906001019060200180831161021457829003601f168201915b5050505050815260200160028201805461024a90610c27565b80601f016020809104026020016040519081016040528092919081815260200182805461027690610c27565b80156102c35780601f10610298576101008083540402835291602001916102c3565b820191906000526020600020905b8154815290600101906020018083116102a657829003601f168201915b505050505081526020016003820160009054906101000a900473ffffffffffffffffffffffffffffffffffffffff1673ffffffffffffffffffffffffffffffffffffffff1673ffffffffffffffffffffffffffffffffffffffff1681525050905080600001518160200151826040015183606001519450945094509450509193509193565b600060205280600052604060002060009150905080600001805461036b90610c27565b80601f016020809104026020016040519081016040528092919081815260200182805461039790610c27565b80156103e45780601f106103b9576101008083540402835291602001916103e4565b820191906000526020600020905b8154815290600101906020018083116103c757829003601f168201915b5050505050908060010180546103f990610c27565b80601f016020809104026020016040519081016040528092919081815260200182805461042590610c27565b80156104725780601f1061044757610100808354040283529160200191610472565b820191906000526020600020905b81548152906001019060200180831161045557829003601f168201915b50505050509080600201805461048790610c27565b80601f01602080910402602001604051908101604052809291908181526020018280546104b390610c27565b80156105005780601f106104d557610100808354040283529160200191610500565b820191906000526020600020905b8154815290600101906020018083116104e357829003601f168201915b5050505050908060030160009054906101000a900473ffffffffffffffffffffffffffffffffffffffff16905084565b60015481565b600260009054906101000a900473ffffffffffffffffffffffffffffffffffffffff1673ffffffffffffffffffffffffffffffffffffffff1663fe9fbb80336040518263ffffffff1660e01b81526004016105919190610a1d565b60206040518083038186803b1580156105a957600080fd5b505afa1580156105bd573d6000803e3d6000fd5b505050506040513d601f19601f820116820180604052508101906105e1919061089d565b610620576040517f08c379a000000000000000000000000000000000000000000000000000000000815260040161061790610a92565b60405180910390fd5b6001600081548092919061063390610c59565b919050555060405180608001604052808481526020018381526020018281526020013373ffffffffffffffffffffffffffffffffffffffff168152506000806001548152602001908152602001600020600082015181600001908051906020019061069f929190610768565b5060208201518160010190805190602001906106bc929190610768565b5060408201518160020190805190602001906106d9929190610768565b5060608201518160030160006101000a81548173ffffffffffffffffffffffffffffffffffffffff021916908373ffffffffffffffffffffffffffffffffffffffff1602179055509050507f4ae7f5004edb0b01ea2ea7030f32aee199cd3015f63683706657940dd27d000d60015484833360405161075b9493929190610acd565b60405180910390a1505050565b82805461077490610c27565b90600052602060002090601f01602090048101928261079657600085556107dd565b82601f106107af57805160ff19168380011785556107dd565b828001600101855582156107dd579182015b828111156107dc5782518255916020019190600101906107c1565b5b5090506107ea91906107ee565b5090565b5b808211156108075760008160009055506001016107ef565b5090565b600061081e61081984610b51565b610b20565b90508281526020810184848401111561083657600080fd5b610841848285610be5565b509392505050565b60008151905061085881610d40565b92915050565b600082601f83011261086f57600080fd5b813561087f84826020860161080b565b91505092915050565b60008135905061089781610d57565b92915050565b6000602082840312156108af57600080fd5b60006108bd84828501610849565b91505092915050565b6000806000606084860312156108db57600080fd5b600084013567ffffffffffffffff8111156108f557600080fd5b6109018682870161085e565b935050602084013567ffffffffffffffff81111561091e57600080fd5b61092a8682870161085e565b925050604084013567ffffffffffffffff81111561094757600080fd5b6109538682870161085e565b9150509250925092565b60006020828403121561096f57600080fd5b600061097d84828501610888565b91505092915050565b61098f81610b9d565b82525050565b60006109a082610b81565b6109aa8185610b8c565b93506109ba818560208601610bf4565b6109c381610d2f565b840191505092915050565b60006109db600e83610b8c565b91507f4e6f7420617574686f72697a65640000000000000000000000000000000000006000830152602082019050919050565b610a1781610bdb565b82525050565b6000602082019050610a326000830184610986565b92915050565b60006080820190508181036000830152610a528187610995565b90508181036020830152610a668186610995565b90508181036040830152610a7a8185610995565b9050610a896060830184610986565b95945050505050565b60006020820190508181036000830152610aab816109ce565b9050919050565b6000602082019050610ac76000830184610a0e565b92915050565b6000608082019050610ae26000830187610a0e565b8181036020830152610af48186610995565b90508181036040830152610b088185610995565b9050610b176060830184610986565b95945050505050565b6000604051905081810181811067ffffffffffffffff82111715610b4757610b46610d00565b5b8060405250919050565b600067ffffffffffffffff821115610b6c57610b6b610d00565b5b601f19601f8301169050602081019050919050565b600081519050919050565b600082825260208201905092915050565b6000610ba882610bbb565b9050919050565b60008115159050919050565b600073ffffffffffffffffffffffffffffffffffffffff82169050919050565b6000819050919050565b82818337600083830152505050565b60005b83811015610c12578082015181840152602081019050610bf7565b83811115610c21576000848401525b50505050565b60006002820490506001821680610c3f57607f821691505b60208210811415610c5357610c52610cd1565b5b50919050565b6000610c6482610bdb565b91507fffffffffffffffffffffffffffffffffffffffffffffffffffffffffffffffff821415610c9757610c96610ca2565b5b600182019050919050565b7f4e487b7100000000000000000000000000000000000000000000000000000000600052601160045260246000fd5b7f4e487b7100000000000000000000000000000000000000000000000000000000600052602260045260246000fd5b7f4e487b7100000000000000000000000000000000000000000000000000000000600052604160045260246000fd5b6000601f19601f8301169050919050565b610d4981610baf565b8114610d5457600080fd5b50565b610d6081610bdb565b8114610d6b57600080fd5b5056fea2646970667358221220055850218777dfef46512ab150f08baa684296e6b68cf5387fe3b212f8d1a7a664736f6c63430008000033",
  "immutableReferences": {},
  "source": "// SPDX-License-Identifier: MIT\r\npragma solidity ^0.8.0;\r\n\r\nimport \"./Identity.sol\";\r\n\r\ncontract Registry {\r\n    struct Disease {\r\n        string name;\r\n        string description;\r\n        string ipfsHash;\r\n        address submitter;\r\n    }\r\n\r\n    mapping(uint256 => Disease) public diseases;\r\n    uint256 public diseaseCount;\r\n    Identity identityContract;\r\n\r\n    event DiseaseRegistered(\r\n        uint256 diseaseId,\r\n        string name,\r\n        string ipfsHash,\r\n        address submitter\r\n    );\r\n\r\n    constructor(address _identityContractAddress) {\r\n        identityContract = Identity(_identityContractAddress);\r\n    }\r\n\r\n    function registerDisease(\r\n        string memory _name,\r\n        string memory _description,\r\n        string memory _ipfsHash\r\n    ) public {\r\n        require(identityContract.isAuthorized(msg.sender), \"Not authorized\");\r\n\r\n        diseaseCount++;\r\n        diseases[diseaseCount] = Disease(\r\n            _name,\r\n            _description,\r\n            _ipfsHash,\r\n            msg.sender\r\n        );\r\n\r\n        emit DiseaseRegistered(diseaseCount, _name, _ipfsHash, msg.sender);\r\n    }\r\n\r\n    function getDisease(\r\n        uint256 _diseaseId\r\n    )\r\n        public\r\n        view\r\n        returns (string memory, string memory, string memory, address)\r\n    {\r\n        Disease memory d = diseases[_diseaseId];\r\n        return (d.name, d.description, d.ipfsHash, d.submitter);\r\n    }\r\n}\r\n",
  "sourcePath": "C:\\Users\\Yojith\\Documents\\BlockBusters\\backend\\contracts\\contracts\\Registry.sol",
  "compiler": {
    "name": "solc",
    "version": "0.8.0+commit.c7dfd78e.Emscripten.clang"
  },
  "schemaVersion": "3.4.16",
  "updatedAt": "2024-08-08T22:12:34.871Z",
  "networkType": "ethereum",
  "devdoc": {
    "kind": "dev",
    "methods": {},
    "version": 1
  },
  "userdoc": {
    "kind": "user",
    "methods": {},
    "version": 1
  }
}