{
  "contractName": "Registry",
  "abi": [
    {
      "anonymous": false,
      "inputs": [
        {
          "indexed": false,
          "internalType": "uint256",
          "name": "recordId",
          "type": "uint256"
        },
        {
          "indexed": false,
          "internalType": "string",
          "name": "title",
          "type": "string"
        },
        {
          "indexed": false,
          "internalType": "string",
          "name": "description",
          "type": "string"
        },
        {
          "indexed": false,
          "internalType": "string",
          "name": "ipfsHash",
          "type": "string"
        },
        {
          "indexed": false,
          "internalType": "address",
          "name": "owner",
          "type": "address"
        }
      ],
      "name": "RecordAdded",
      "type": "event"
    },
    {
      "inputs": [],
      "name": "recordCount",
      "outputs": [
        {
          "internalType": "uint256",
          "name": "",
          "type": "uint256"
        }
      ],
      "stateMutability": "view",
      "type": "function",
      "constant": true
    },
    {
      "inputs": [
        {
          "internalType": "uint256",
          "name": "",
          "type": "uint256"
        }
      ],
      "name": "records",
      "outputs": [
        {
          "internalType": "string",
          "name": "title",
          "type": "string"
        },
        {
          "internalType": "string",
          "name": "description",
          "type": "string"
        },
        {
          "internalType": "string",
          "name": "ipfsHash",
          "type": "string"
        },
        {
          "internalType": "address",
          "name": "owner",
          "type": "address"
        },
        {
          "internalType": "uint256",
          "name": "timestamp",
          "type": "uint256"
        }
      ],
      "stateMutability": "view",
      "type": "function",
      "constant": true
    },
    {
      "inputs": [
        {
          "internalType": "string",
          "name": "_title",
          "type": "string"
        },
        {
          "internalType": "string",
          "name": "_description",
          "type": "string"
        },
        {
          "internalType": "string",
          "name": "_ipfsHash",
          "type": "string"
        }
      ],
      "name": "addRecord",
      "outputs": [],
      "stateMutability": "nonpayable",
      "type": "function"
    },
    {
      "inputs": [
        {
          "internalType": "uint256",
          "name": "_recordId",
          "type": "uint256"
        }
      ],
      "name": "getRecord",
      "outputs": [
        {
          "components": [
            {
              "internalType": "string",
              "name": "title",
              "type": "string"
            },
            {
              "internalType": "string",
              "name": "description",
              "type": "string"
            },
            {
              "internalType": "string",
              "name": "ipfsHash",
              "type": "string"
            },
            {
              "internalType": "address",
              "name": "owner",
              "type": "address"
            },
            {
              "internalType": "uint256",
              "name": "timestamp",
              "type": "uint256"
            }
          ],
          "internalType": "struct Registry.Record",
          "name": "",
          "type": "tuple"
        }
      ],
      "stateMutability": "view",
      "type": "function",
      "constant": true
    }
  ],
  "bytecode": "0x608060405234801561001057600080fd5b50610d55806100206000396000f3fe608060405234801561001057600080fd5b506004361061004c5760003560e01c806303e9e6091461005157806334461067146100815780633f723c62146100b5578063900407bc146100d1575b600080fd5b61006b6004803603810190610066919061087b565b6100ef565b6040516100789190610a3e565b60405180910390f35b61009b6004803603810190610096919061087b565b610331565b6040516100ac9594939291906109d6565b60405180910390f35b6100cf60048036038101906100ca91906107e4565b61051f565b005b6100d9610679565b6040516100e69190610a60565b60405180910390f35b6100f761067f565b6000808381526020019081526020016000206040518060a001604052908160008201805461012490610bef565b80601f016020809104026020016040519081016040528092919081815260200182805461015090610bef565b801561019d5780601f106101725761010080835404028352916020019161019d565b820191906000526020600020905b81548152906001019060200180831161018057829003601f168201915b505050505081526020016001820180546101b690610bef565b80601f01602080910402602001604051908101604052809291908181526020018280546101e290610bef565b801561022f5780601f106102045761010080835404028352916020019161022f565b820191906000526020600020905b81548152906001019060200180831161021257829003601f168201915b5050505050815260200160028201805461024890610bef565b80601f016020809104026020016040519081016040528092919081815260200182805461027490610bef565b80156102c15780601f10610296576101008083540402835291602001916102c1565b820191906000526020600020905b8154815290600101906020018083116102a457829003601f168201915b505050505081526020016003820160009054906101000a900473ffffffffffffffffffffffffffffffffffffffff1673ffffffffffffffffffffffffffffffffffffffff1673ffffffffffffffffffffffffffffffffffffffff1681526020016004820154815250509050919050565b600060205280600052604060002060009150905080600001805461035490610bef565b80601f016020809104026020016040519081016040528092919081815260200182805461038090610bef565b80156103cd5780601f106103a2576101008083540402835291602001916103cd565b820191906000526020600020905b8154815290600101906020018083116103b057829003601f168201915b5050505050908060010180546103e290610bef565b80601f016020809104026020016040519081016040528092919081815260200182805461040e90610bef565b801561045b5780601f106104305761010080835404028352916020019161045b565b820191906000526020600020905b81548152906001019060200180831161043e57829003601f168201915b50505050509080600201805461047090610bef565b80601f016020809104026020016040519081016040528092919081815260200182805461049c90610bef565b80156104e95780601f106104be576101008083540402835291602001916104e9565b820191906000526020600020905b8154815290600101906020018083116104cc57829003601f168201915b5050505050908060030160009054906101000a900473ffffffffffffffffffffffffffffffffffffffff16908060040154905085565b6040518060a001604052808481526020018381526020018281526020013373ffffffffffffffffffffffffffffffffffffffff168152602001428152506000806001548152602001908152602001600020600082015181600001908051906020019061058c9291906106c4565b5060208201518160010190805190602001906105a99291906106c4565b5060408201518160020190805190602001906105c69291906106c4565b5060608201518160030160006101000a81548173ffffffffffffffffffffffffffffffffffffffff021916908373ffffffffffffffffffffffffffffffffffffffff160217905550608082015181600401559050507f1662aba55563129acef328d22ed23acea917bdc03f28f7482963fb7499bb1fcf60015484848433604051610654959493929190610a7b565b60405180910390a16001600081548092919061066f90610c21565b9190505550505050565b60015481565b6040518060a00160405280606081526020016060815260200160608152602001600073ffffffffffffffffffffffffffffffffffffffff168152602001600081525090565b8280546106d090610bef565b90600052602060002090601f0160209004810192826106f25760008555610739565b82601f1061070b57805160ff1916838001178555610739565b82800160010185558215610739579182015b8281111561073857825182559160200191906001019061071d565b5b509050610746919061074a565b5090565b5b8082111561076357600081600090555060010161074b565b5090565b600061077a61077584610b14565b610ae3565b90508281526020810184848401111561079257600080fd5b61079d848285610bad565b509392505050565b600082601f8301126107b657600080fd5b81356107c6848260208601610767565b91505092915050565b6000813590506107de81610d08565b92915050565b6000806000606084860312156107f957600080fd5b600084013567ffffffffffffffff81111561081357600080fd5b61081f868287016107a5565b935050602084013567ffffffffffffffff81111561083c57600080fd5b610848868287016107a5565b925050604084013567ffffffffffffffff81111561086557600080fd5b610871868287016107a5565b9150509250925092565b60006020828403121561088d57600080fd5b600061089b848285016107cf565b91505092915050565b6108ad81610b71565b82525050565b6108bc81610b71565b82525050565b60006108cd82610b44565b6108d78185610b4f565b93506108e7818560208601610bbc565b6108f081610cf7565b840191505092915050565b600061090682610b44565b6109108185610b60565b9350610920818560208601610bbc565b61092981610cf7565b840191505092915050565b600060a083016000830151848203600086015261095182826108c2565b9150506020830151848203602086015261096b82826108c2565b9150506040830151848203604086015261098582826108c2565b915050606083015161099a60608601826108a4565b5060808301516109ad60808601826109b8565b508091505092915050565b6109c181610ba3565b82525050565b6109d081610ba3565b82525050565b600060a08201905081810360008301526109f081886108fb565b90508181036020830152610a0481876108fb565b90508181036040830152610a1881866108fb565b9050610a2760608301856108b3565b610a3460808301846109c7565b9695505050505050565b60006020820190508181036000830152610a588184610934565b905092915050565b6000602082019050610a7560008301846109c7565b92915050565b600060a082019050610a9060008301886109c7565b8181036020830152610aa281876108fb565b90508181036040830152610ab681866108fb565b90508181036060830152610aca81856108fb565b9050610ad960808301846108b3565b9695505050505050565b6000604051905081810181811067ffffffffffffffff82111715610b0a57610b09610cc8565b5b8060405250919050565b600067ffffffffffffffff821115610b2f57610b2e610cc8565b5b601f19601f8301169050602081019050919050565b600081519050919050565b600082825260208201905092915050565b600082825260208201905092915050565b6000610b7c82610b83565b9050919050565b600073ffffffffffffffffffffffffffffffffffffffff82169050919050565b6000819050919050565b82818337600083830152505050565b60005b83811015610bda578082015181840152602081019050610bbf565b83811115610be9576000848401525b50505050565b60006002820490506001821680610c0757607f821691505b60208210811415610c1b57610c1a610c99565b5b50919050565b6000610c2c82610ba3565b91507fffffffffffffffffffffffffffffffffffffffffffffffffffffffffffffffff821415610c5f57610c5e610c6a565b5b600182019050919050565b7f4e487b7100000000000000000000000000000000000000000000000000000000600052601160045260246000fd5b7f4e487b7100000000000000000000000000000000000000000000000000000000600052602260045260246000fd5b7f4e487b7100000000000000000000000000000000000000000000000000000000600052604160045260246000fd5b6000601f19601f8301169050919050565b610d1181610ba3565b8114610d1c57600080fd5b5056fea2646970667358221220ff081931b178db3d285a7b5d9dd4ded3f2b3bab0795f0f59700888cc4740c29364736f6c63430008000033",
  "immutableReferences": {},
  "source": "// SPDX-License-Identifier: MIT\r\npragma solidity ^0.8.0;\r\n\r\ncontract Registry {\r\n    struct Record {\r\n        string title;\r\n        string description;\r\n        string ipfsHash;\r\n        address owner;\r\n        uint256 timestamp;\r\n    }\r\n\r\n    mapping(uint256 => Record) public records;\r\n    uint256 public recordCount;\r\n\r\n    event RecordAdded(\r\n        uint256 recordId,\r\n        string title,\r\n        string description,\r\n        string ipfsHash,\r\n        address owner\r\n    );\r\n\r\n    function addRecord(\r\n        string memory _title,\r\n        string memory _description,\r\n        string memory _ipfsHash\r\n    ) public {\r\n        records[recordCount] = Record({\r\n            title: _title,\r\n            description: _description,\r\n            ipfsHash: _ipfsHash,\r\n            owner: msg.sender,\r\n            timestamp: block.timestamp\r\n        });\r\n\r\n        emit RecordAdded(\r\n            recordCount,\r\n            _title,\r\n            _description,\r\n            _ipfsHash,\r\n            msg.sender\r\n        );\r\n        recordCount++;\r\n    }\r\n\r\n    function getRecord(uint256 _recordId) public view returns (Record memory) {\r\n        return records[_recordId];\r\n    }\r\n\r\n    // Add any other necessary functions\r\n}\r\n",
  "sourcePath": "C:\\Users\\Yojith\\Documents\\BlockBusters\\backend\\contracts\\contracts\\Registry.sol",
  "compiler": {
    "name": "solc",
    "version": "0.8.0+commit.c7dfd78e.Emscripten.clang"
  },
  "schemaVersion": "3.4.16",
  "updatedAt": "2024-08-09T09:21:42.499Z",
  "networkType": "ethereum",
  "devdoc": {
    "kind": "dev",
    "methods": {},
    "version": 1
  },
  "userdoc": {
    "kind": "user",
    "methods": {},
    "version": 1
  }
}